{
  "_format": "hh-sol-artifact-1",
  "contractName": "WasteOperations",
  "sourceName": "contracts/WasteOperation.sol",
  "abi": [
    {
      "inputs": [],
      "stateMutability": "nonpayable",
      "type": "constructor"
    },
    {
      "anonymous": false,
      "inputs": [
        {
          "indexed": false,
          "internalType": "uint256",
          "name": "idWaste",
          "type": "uint256"
        },
        {
          "indexed": false,
          "internalType": "string",
          "name": "nameWaste",
          "type": "string"
        },
        {
          "indexed": false,
          "internalType": "string",
          "name": "typeOfWaste",
          "type": "string"
        },
        {
          "indexed": false,
          "internalType": "string",
          "name": "volumeofWaste",
          "type": "string"
        },
        {
          "indexed": false,
          "internalType": "string",
          "name": "wasteSources",
          "type": "string"
        },
        {
          "indexed": false,
          "internalType": "uint256",
          "name": "amountOfWaste",
          "type": "uint256"
        },
        {
          "indexed": false,
          "internalType": "uint256",
          "name": "cost",
          "type": "uint256"
        },
        {
          "indexed": false,
          "internalType": "string",
          "name": "people",
          "type": "string"
        }
      ],
      "name": "addWaste",
      "type": "event"
    },
    {
      "anonymous": false,
      "inputs": [
        {
          "indexed": false,
          "internalType": "uint256",
          "name": "idWaste",
          "type": "uint256"
        }
      ],
      "name": "deleteWaste",
      "type": "event"
    },
    {
      "anonymous": false,
      "inputs": [
        {
          "indexed": false,
          "internalType": "uint256",
          "name": "idWaste",
          "type": "uint256"
        },
        {
          "indexed": false,
          "internalType": "string",
          "name": "nameWaste",
          "type": "string"
        },
        {
          "indexed": false,
          "internalType": "string",
          "name": "typeOfWaste",
          "type": "string"
        },
        {
          "indexed": false,
          "internalType": "string",
          "name": "volumeofWaste",
          "type": "string"
        },
        {
          "indexed": false,
          "internalType": "string",
          "name": "wasteSources",
          "type": "string"
        },
        {
          "indexed": false,
          "internalType": "uint256",
          "name": "amountOfWaste",
          "type": "uint256"
        },
        {
          "indexed": false,
          "internalType": "uint256",
          "name": "cost",
          "type": "uint256"
        },
        {
          "indexed": false,
          "internalType": "string",
          "name": "people",
          "type": "string"
        }
      ],
      "name": "updateWaste",
      "type": "event"
    },
    {
      "inputs": [
        {
          "internalType": "uint256",
          "name": "",
          "type": "uint256"
        }
      ],
      "name": "WasteRecord",
      "outputs": [
        {
          "internalType": "uint256",
          "name": "idWaste",
          "type": "uint256"
        },
        {
          "internalType": "string",
          "name": "nameWaste",
          "type": "string"
        },
        {
          "internalType": "string",
          "name": "typeOfWaste",
          "type": "string"
        },
        {
          "internalType": "string",
          "name": "volumeofWaste",
          "type": "string"
        },
        {
          "internalType": "string",
          "name": "wasteSources",
          "type": "string"
        },
        {
          "internalType": "uint256",
          "name": "amountOfWaste",
          "type": "uint256"
        },
        {
          "internalType": "uint256",
          "name": "cost",
          "type": "uint256"
        },
        {
          "internalType": "string",
          "name": "people",
          "type": "string"
        }
      ],
      "stateMutability": "view",
      "type": "function"
    },
    {
      "inputs": [
        {
          "internalType": "uint256",
          "name": "_idWaste",
          "type": "uint256"
        },
        {
          "internalType": "string",
          "name": "_nameWaste",
          "type": "string"
        },
        {
          "internalType": "string",
          "name": "_typeOfWaste",
          "type": "string"
        },
        {
          "internalType": "string",
          "name": "_volumeofWaste",
          "type": "string"
        },
        {
          "internalType": "string",
          "name": "_wasteSources",
          "type": "string"
        },
        {
          "internalType": "uint256",
          "name": "_amountOfWaste",
          "type": "uint256"
        },
        {
          "internalType": "uint256",
          "name": "_cost",
          "type": "uint256"
        },
        {
          "internalType": "string",
          "name": "_people",
          "type": "string"
        }
      ],
      "name": "addWastes",
      "outputs": [],
      "stateMutability": "nonpayable",
      "type": "function"
    },
    {
      "inputs": [],
      "name": "admin",
      "outputs": [
        {
          "internalType": "address",
          "name": "",
          "type": "address"
        }
      ],
      "stateMutability": "view",
      "type": "function"
    },
    {
      "inputs": [
        {
          "internalType": "uint256",
          "name": "_idWaste",
          "type": "uint256"
        }
      ],
      "name": "deleteWastes",
      "outputs": [],
      "stateMutability": "nonpayable",
      "type": "function"
    },
    {
      "inputs": [
        {
          "internalType": "uint256",
          "name": "_idWaste",
          "type": "uint256"
        },
        {
          "internalType": "string",
          "name": "_nameWaste",
          "type": "string"
        },
        {
          "internalType": "string",
          "name": "_typeOfWaste",
          "type": "string"
        },
        {
          "internalType": "string",
          "name": "_volumeofWaste",
          "type": "string"
        },
        {
          "internalType": "string",
          "name": "_wasteSources",
          "type": "string"
        },
        {
          "internalType": "uint256",
          "name": "_amountOfWaste",
          "type": "uint256"
        },
        {
          "internalType": "uint256",
          "name": "_cost",
          "type": "uint256"
        },
        {
          "internalType": "string",
          "name": "_people",
          "type": "string"
        }
      ],
      "name": "editWastes",
      "outputs": [],
      "stateMutability": "nonpayable",
      "type": "function"
    },
    {
      "inputs": [
        {
          "internalType": "uint256",
          "name": "_idWaste",
          "type": "uint256"
        }
      ],
      "name": "getWastesByID",
      "outputs": [
        {
          "components": [
            {
              "internalType": "uint256",
              "name": "idWaste",
              "type": "uint256"
            },
            {
              "internalType": "string",
              "name": "nameWaste",
              "type": "string"
            },
            {
              "internalType": "string",
              "name": "typeOfWaste",
              "type": "string"
            },
            {
              "internalType": "string",
              "name": "volumeofWaste",
              "type": "string"
            },
            {
              "internalType": "string",
              "name": "wasteSources",
              "type": "string"
            },
            {
              "internalType": "uint256",
              "name": "amountOfWaste",
              "type": "uint256"
            },
            {
              "internalType": "uint256",
              "name": "cost",
              "type": "uint256"
            },
            {
              "internalType": "string",
              "name": "people",
              "type": "string"
            }
          ],
          "internalType": "struct WasteStorage.Waste",
          "name": "",
          "type": "tuple"
        }
      ],
      "stateMutability": "view",
      "type": "function"
    }
  ],
  "bytecode": "0x608060405234801561001057600080fd5b50600080546001600160a01b03191633179055611589806100326000396000f3fe608060405234801561001057600080fd5b50600436106100625760003560e01c806343cfada614610067578063830e75381461007c578063cdd9c8081461008f578063d7ab2678146100bf578063e0878ec4146100d2578063f851a440146100f2575b600080fd5b61007a610075366004610fc2565b61011d565b005b61007a61008a36600461107e565b610269565b6100a261009d366004610fc2565b6105fc565b6040516100b69897969594939291906111b3565b60405180910390f35b61007a6100cd36600461107e565b6108e4565b6100e56100e0366004610fc2565b610b97565b6040516100b69190611238565b600054610105906001600160a01b031681565b6040516001600160a01b0390911681526020016100b6565b6000546001600160a01b031633146101505760405162461bcd60e51b8152600401610147906112f4565b60405180910390fd5b600081815260016020526040812054900361017d5760405162461bcd60e51b815260040161014790611329565b600081116101c65760405162461bcd60e51b81526020600482015260166024820152754964204c696d6261682048617275732044696973692160501b6044820152606401610147565b6000818152600160208190526040822082815591906101e790830182610f6c565b6101f5600283016000610f6c565b610203600383016000610f6c565b610211600483016000610f6c565b600582016000905560068201600090556007820160006102319190610f6c565b50506040518181527f2c33e03a95fe021b35c8ad278f1b010b678e0c3198b88e5f13402324a52f64689060200160405180910390a150565b6000546001600160a01b031633146102935760405162461bcd60e51b8152600401610147906112f4565b600088815260016020526040902054156103005760405162461bcd60e51b815260206004820152602860248201527f44617461204c696d6261682064656e67616e2049442074657273656275742073604482015267756461682061646160c01b6064820152608401610147565b60008751116103515760405162461bcd60e51b815260206004820152601e60248201527f4e616d61204c696d62616820546964616b20426f6c6568204b6f736f6e6700006044820152606401610147565b60008651116103a25760405162461bcd60e51b815260206004820152601f60248201527f4a656e6973204c696d62616820546964616b20426f6c6568204b6f736f6e67006044820152606401610147565b60008551116103f35760405162461bcd60e51b815260206004820152601f60248201527f4265726174204c696d62616820546964616b20426f6c6568204b6f736f6e67006044820152606401610147565b60008451116104445760405162461bcd60e51b815260206004820181905260248201527f53756d626572204c696d62616820546964616b20426f6c6568204b6f736f6e676044820152606401610147565b600083116104945760405162461bcd60e51b815260206004820181905260248201527f4a756d6c6168204c696d62616820546964616b20426f6c6568204b6f736f6e676044820152606401610147565b600082116104b45760405162461bcd60e51b815260040161014790611371565b60008151116104d55760405162461bcd60e51b8152600401610147906113bc565b60405180610100016040528089815260200188815260200187815260200186815260200185815260200184815260200183815260200182815250600160008a81526020019081526020016000206000820151816000015560208201518160010190816105419190611493565b50604082015160028201906105569082611493565b506060820151600382019061056b9082611493565b50608082015160048201906105809082611493565b5060a0820151600582015560c0820151600682015560e082015160078201906105a99082611493565b509050507f4ff75f1d6e800d80dd1459b8a66fd99bd3af57bfec3ccd5a8ad4d9691d61f89288888888888888886040516105ea9897969594939291906111b3565b60405180910390a15050505050505050565b60016020819052600091825260409091208054918101805461061d9061140a565b80601f01602080910402602001604051908101604052809291908181526020018280546106499061140a565b80156106965780601f1061066b57610100808354040283529160200191610696565b820191906000526020600020905b81548152906001019060200180831161067957829003601f168201915b5050505050908060020180546106ab9061140a565b80601f01602080910402602001604051908101604052809291908181526020018280546106d79061140a565b80156107245780601f106106f957610100808354040283529160200191610724565b820191906000526020600020905b81548152906001019060200180831161070757829003601f168201915b5050505050908060030180546107399061140a565b80601f01602080910402602001604051908101604052809291908181526020018280546107659061140a565b80156107b25780601f10610787576101008083540402835291602001916107b2565b820191906000526020600020905b81548152906001019060200180831161079557829003601f168201915b5050505050908060040180546107c79061140a565b80601f01602080910402602001604051908101604052809291908181526020018280546107f39061140a565b80156108405780601f1061081557610100808354040283529160200191610840565b820191906000526020600020905b81548152906001019060200180831161082357829003601f168201915b5050505050908060050154908060060154908060070180546108619061140a565b80601f016020809104026020016040519081016040528092919081815260200182805461088d9061140a565b80156108da5780601f106108af576101008083540402835291602001916108da565b820191906000526020600020905b8154815290600101906020018083116108bd57829003601f168201915b5050505050905088565b6000546001600160a01b0316331461090e5760405162461bcd60e51b8152600401610147906112f4565b6000888152600160205260409020875161096a5760405162461bcd60e51b815260206004820152601e60248201527f4e616d61204c696d62616820546964616b20426f6c6568204b6f736f6e6700006044820152606401610147565b60008751116109bb5760405162461bcd60e51b815260206004820152601f60248201527f4a656e6973204c696d62616820546964616b20426f6c6568204b6f736f6e67006044820152606401610147565b6000865111610a0c5760405162461bcd60e51b815260206004820152601f60248201527f4265726174204c696d62616820546964616b20426f6c6568204b6f736f6e67006044820152606401610147565b6000855111610a5d5760405162461bcd60e51b815260206004820181905260248201527f53756d626572204c696d62616820546964616b20426f6c6568204b6f736f6e676044820152606401610147565b60008411610aad5760405162461bcd60e51b815260206004820181905260248201527f4a756d6c6168204c696d62616820546964616b20426f6c6568204b6f736f6e676044820152606401610147565b60008311610acd5760405162461bcd60e51b815260040161014790611371565b6000825111610aee5760405162461bcd60e51b8152600401610147906113bc565b60018101610afc8982611493565b5060028101610b0b8882611493565b5060038101610b1a8782611493565b5060048101610b298682611493565b50600581018490556006810183905560078101610b468382611493565b507fc493d2ec1740d33bdbc8c225503e25bc3da3443a7b5424ea09c8c42ee6a8ebcd8989898989898989604051610b849897969594939291906111b3565b60405180910390a1505050505050505050565b610bdf60405180610100016040528060008152602001606081526020016060815260200160608152602001606081526020016000815260200160008152602001606081525090565b6000828152600160205260408120549003610c0c5760405162461bcd60e51b815260040161014790611329565b60008211610c555760405162461bcd60e51b81526020600482015260166024820152754964204c696d6261682048617275732044696973692160501b6044820152606401610147565b6000828152600160208181526040928390208351610100810190945280548452918201805491840191610c879061140a565b80601f0160208091040260200160405190810160405280929190818152602001828054610cb39061140a565b8015610d005780601f10610cd557610100808354040283529160200191610d00565b820191906000526020600020905b815481529060010190602001808311610ce357829003601f168201915b50505050508152602001600282018054610d199061140a565b80601f0160208091040260200160405190810160405280929190818152602001828054610d459061140a565b8015610d925780601f10610d6757610100808354040283529160200191610d92565b820191906000526020600020905b815481529060010190602001808311610d7557829003601f168201915b50505050508152602001600382018054610dab9061140a565b80601f0160208091040260200160405190810160405280929190818152602001828054610dd79061140a565b8015610e245780601f10610df957610100808354040283529160200191610e24565b820191906000526020600020905b815481529060010190602001808311610e0757829003601f168201915b50505050508152602001600482018054610e3d9061140a565b80601f0160208091040260200160405190810160405280929190818152602001828054610e699061140a565b8015610eb65780601f10610e8b57610100808354040283529160200191610eb6565b820191906000526020600020905b815481529060010190602001808311610e9957829003601f168201915b505050505081526020016005820154815260200160068201548152602001600782018054610ee39061140a565b80601f0160208091040260200160405190810160405280929190818152602001828054610f0f9061140a565b8015610f5c5780601f10610f3157610100808354040283529160200191610f5c565b820191906000526020600020905b815481529060010190602001808311610f3f57829003601f168201915b5050505050815250509050919050565b508054610f789061140a565b6000825580601f10610f88575050565b601f016020900490600052602060002090810190610fa69190610fa9565b50565b5b80821115610fbe5760008155600101610faa565b5090565b600060208284031215610fd457600080fd5b5035919050565b634e487b7160e01b600052604160045260246000fd5b600082601f83011261100257600080fd5b813567ffffffffffffffff8082111561101d5761101d610fdb565b604051601f8301601f19908116603f0116810190828211818310171561104557611045610fdb565b8160405283815286602085880101111561105e57600080fd5b836020870160208301376000602085830101528094505050505092915050565b600080600080600080600080610100898b03121561109b57600080fd5b88359750602089013567ffffffffffffffff808211156110ba57600080fd5b6110c68c838d01610ff1565b985060408b01359150808211156110dc57600080fd5b6110e88c838d01610ff1565b975060608b01359150808211156110fe57600080fd5b61110a8c838d01610ff1565b965060808b013591508082111561112057600080fd5b61112c8c838d01610ff1565b955060a08b0135945060c08b0135935060e08b013591508082111561115057600080fd5b5061115d8b828c01610ff1565b9150509295985092959890939650565b6000815180845260005b8181101561119357602081850181015186830182015201611177565b506000602082860101526020601f19601f83011685010191505092915050565b60006101008a83528060208401526111cd8184018b61116d565b905082810360408401526111e1818a61116d565b905082810360608401526111f5818961116d565b90508281036080840152611209818861116d565b90508560a08401528460c084015282810360e0840152611229818561116d565b9b9a5050505050505050505050565b60208152815160208201526000602083015161010080604085015261126161012085018361116d565b91506040850151601f198086850301606087015261127f848361116d565b9350606087015191508086850301608087015261129c848361116d565b935060808701519150808685030160a08701526112b9848361116d565b935060a087015160c087015260c087015160e087015260e08701519150808685030183870152506112ea838261116d565b9695505050505050565b6020808252818101527f48616e79612061646d696e2079616e6720626f6c6568206d656c616b756b616e604082015260600190565b60208082526028908201527f44617461204c696d6261682064656e67616e20494420746572736562757420746040820152676964616b2061646160c01b606082015260800190565b6020808252602b908201527f42696179612050656e67656c6f6c61616e204c696d62616820546964616b204260408201526a6f6c6568204b6f736f6e6760a81b606082015260800190565b6020808252602e908201527f506968616b2059616e67204d656e67656c6f6c61204c696d626168205469646160408201526d6b20426f6c6568204b6f736f6e6760901b606082015260800190565b600181811c9082168061141e57607f821691505b60208210810361143e57634e487b7160e01b600052602260045260246000fd5b50919050565b601f82111561148e57600081815260208120601f850160051c8101602086101561146b5750805b601f850160051c820191505b8181101561148a57828155600101611477565b5050505b505050565b815167ffffffffffffffff8111156114ad576114ad610fdb565b6114c1816114bb845461140a565b84611444565b602080601f8311600181146114f657600084156114de5750858301515b600019600386901b1c1916600185901b17855561148a565b600085815260208120601f198616915b8281101561152557888601518255948401946001909101908401611506565b50858210156115435787850151600019600388901b60f8161c191681555b5050505050600190811b0190555056fea2646970667358221220fbc86f4e5a838084987791ddfae26e23228bf1047271b8232f5dbf28174bfe7a64736f6c63430008130033",
  "linkReferences": {},
  "deployedLinkReferences": {}
}