{
  "_format": "hh-sol-artifact-1",
  "contractName": "WasteStorage",
  "sourceName": "contracts/WasteStorage.sol",
  "abi": [
    {
      "anonymous": false,
      "inputs": [
        {
          "indexed": false,
          "internalType": "uint256",
          "name": "idWaste",
          "type": "uint256"
        },
        {
          "indexed": false,
          "internalType": "string",
          "name": "nameWaste",
          "type": "string"
        },
        {
          "indexed": false,
          "internalType": "string",
          "name": "typeOfWaste",
          "type": "string"
        },
        {
          "indexed": false,
          "internalType": "string",
          "name": "volumeofWaste",
          "type": "string"
        },
        {
          "indexed": false,
          "internalType": "string",
          "name": "wasteSources",
          "type": "string"
        },
        {
          "indexed": false,
          "internalType": "uint256",
          "name": "amountOfWaste",
          "type": "uint256"
        },
        {
          "indexed": false,
          "internalType": "uint256",
          "name": "cost",
          "type": "uint256"
        },
        {
          "indexed": false,
          "internalType": "string",
          "name": "people",
          "type": "string"
        }
      ],
      "name": "addWaste",
      "type": "event"
    },
    {
      "anonymous": false,
      "inputs": [
        {
          "indexed": false,
          "internalType": "uint256",
          "name": "idWaste",
          "type": "uint256"
        }
      ],
      "name": "deleteWaste",
      "type": "event"
    },
    {
      "anonymous": false,
      "inputs": [
        {
          "indexed": false,
          "internalType": "uint256",
          "name": "idWaste",
          "type": "uint256"
        },
        {
          "indexed": false,
          "internalType": "string",
          "name": "nameWaste",
          "type": "string"
        },
        {
          "indexed": false,
          "internalType": "string",
          "name": "typeOfWaste",
          "type": "string"
        },
        {
          "indexed": false,
          "internalType": "string",
          "name": "volumeofWaste",
          "type": "string"
        },
        {
          "indexed": false,
          "internalType": "string",
          "name": "wasteSources",
          "type": "string"
        },
        {
          "indexed": false,
          "internalType": "uint256",
          "name": "amountOfWaste",
          "type": "uint256"
        },
        {
          "indexed": false,
          "internalType": "uint256",
          "name": "cost",
          "type": "uint256"
        },
        {
          "indexed": false,
          "internalType": "string",
          "name": "people",
          "type": "string"
        }
      ],
      "name": "updateWaste",
      "type": "event"
    },
    {
      "inputs": [
        {
          "internalType": "uint256",
          "name": "",
          "type": "uint256"
        }
      ],
      "name": "WasteRecord",
      "outputs": [
        {
          "internalType": "uint256",
          "name": "idWaste",
          "type": "uint256"
        },
        {
          "internalType": "string",
          "name": "nameWaste",
          "type": "string"
        },
        {
          "internalType": "string",
          "name": "typeOfWaste",
          "type": "string"
        },
        {
          "internalType": "string",
          "name": "volumeofWaste",
          "type": "string"
        },
        {
          "internalType": "string",
          "name": "wasteSources",
          "type": "string"
        },
        {
          "internalType": "uint256",
          "name": "amountOfWaste",
          "type": "uint256"
        },
        {
          "internalType": "uint256",
          "name": "cost",
          "type": "uint256"
        },
        {
          "internalType": "string",
          "name": "people",
          "type": "string"
        }
      ],
      "stateMutability": "view",
      "type": "function"
    },
    {
      "inputs": [],
      "name": "admin",
      "outputs": [
        {
          "internalType": "address",
          "name": "",
          "type": "address"
        }
      ],
      "stateMutability": "view",
      "type": "function"
    }
  ],
  "bytecode": "0x608060405234801561001057600080fd5b506104d2806100206000396000f3fe608060405234801561001057600080fd5b50600436106100365760003560e01c8063cdd9c8081461003b578063f851a4401461006b575b600080fd5b61004e61004936600461037e565b610096565b6040516100629897969594939291906103dd565b60405180910390f35b60005461007e906001600160a01b031681565b6040516001600160a01b039091168152602001610062565b6001602081905260009182526040909120805491810180546100b790610462565b80601f01602080910402602001604051908101604052809291908181526020018280546100e390610462565b80156101305780601f1061010557610100808354040283529160200191610130565b820191906000526020600020905b81548152906001019060200180831161011357829003601f168201915b50505050509080600201805461014590610462565b80601f016020809104026020016040519081016040528092919081815260200182805461017190610462565b80156101be5780601f10610193576101008083540402835291602001916101be565b820191906000526020600020905b8154815290600101906020018083116101a157829003601f168201915b5050505050908060030180546101d390610462565b80601f01602080910402602001604051908101604052809291908181526020018280546101ff90610462565b801561024c5780601f106102215761010080835404028352916020019161024c565b820191906000526020600020905b81548152906001019060200180831161022f57829003601f168201915b50505050509080600401805461026190610462565b80601f016020809104026020016040519081016040528092919081815260200182805461028d90610462565b80156102da5780601f106102af576101008083540402835291602001916102da565b820191906000526020600020905b8154815290600101906020018083116102bd57829003601f168201915b5050505050908060050154908060060154908060070180546102fb90610462565b80601f016020809104026020016040519081016040528092919081815260200182805461032790610462565b80156103745780601f1061034957610100808354040283529160200191610374565b820191906000526020600020905b81548152906001019060200180831161035757829003601f168201915b5050505050905088565b60006020828403121561039057600080fd5b5035919050565b6000815180845260005b818110156103bd576020818501810151868301820152016103a1565b506000602082860101526020601f19601f83011685010191505092915050565b60006101008a83528060208401526103f78184018b610397565b9050828103604084015261040b818a610397565b9050828103606084015261041f8189610397565b905082810360808401526104338188610397565b90508560a08401528460c084015282810360e08401526104538185610397565b9b9a5050505050505050505050565b600181811c9082168061047657607f821691505b60208210810361049657634e487b7160e01b600052602260045260246000fd5b5091905056fea2646970667358221220749d502d2e927eb556216104ad40b508d40d7cd8c112cf4993ae6dc576de490164736f6c63430008130033",
  "linkReferences": {},
  "deployedLinkReferences": {}
}